{
  "contractName": "Boki",
  "abi": [
    {
      "inputs": [
        {
          "internalType": "string",
          "name": "_preRevealURI",
          "type": "string"
        },
        {
          "internalType": "address",
          "name": "_withdrawalAddress",
          "type": "address"
        },
        {
          "internalType": "address",
          "name": "_vrfCoordinator",
          "type": "address"
        },
        {
          "internalType": "address",
          "name": "_linkAddress",
          "type": "address"
        },
        {
          "internalType": "bytes32",
          "name": "_chainlinkKeyHash",
          "type": "bytes32"
        },
        {
          "internalType": "uint256",
          "name": "_chainlinkFee",
          "type": "uint256"
        }
      ],
      "stateMutability": "nonpayable",
      "type": "constructor"
    },
    {
      "inputs": [],
      "name": "ApprovalCallerNotOwnerNorApproved",
      "type": "error"
    },
    {
      "inputs": [],
      "name": "ApprovalQueryForNonexistentToken",
      "type": "error"
    },
    {
      "inputs": [],
      "name": "ApprovalToCurrentOwner",
      "type": "error"
    },
    {
      "inputs": [],
      "name": "ApproveToCaller",
      "type": "error"
    },
    {
      "inputs": [],
      "name": "BalanceQueryForZeroAddress",
      "type": "error"
    },
    {
      "inputs": [],
      "name": "MintToZeroAddress",
      "type": "error"
    },
    {
      "inputs": [],
      "name": "MintZeroQuantity",
      "type": "error"
    },
    {
      "inputs": [],
      "name": "OwnerQueryForNonexistentToken",
      "type": "error"
    },
    {
      "inputs": [],
      "name": "TransferCallerNotOwnerNorApproved",
      "type": "error"
    },
    {
      "inputs": [],
      "name": "TransferFromIncorrectOwner",
      "type": "error"
    },
    {
      "inputs": [],
      "name": "TransferToNonERC721ReceiverImplementer",
      "type": "error"
    },
    {
      "inputs": [],
      "name": "TransferToZeroAddress",
      "type": "error"
    },
    {
      "anonymous": false,
      "inputs": [
        {
          "indexed": true,
          "internalType": "address",
          "name": "owner",
          "type": "address"
        },
        {
          "indexed": true,
          "internalType": "address",
          "name": "approved",
          "type": "address"
        },
        {
          "indexed": true,
          "internalType": "uint256",
          "name": "tokenId",
          "type": "uint256"
        }
      ],
      "name": "Approval",
      "type": "event"
    },
    {
      "anonymous": false,
      "inputs": [
        {
          "indexed": true,
          "internalType": "address",
          "name": "owner",
          "type": "address"
        },
        {
          "indexed": true,
          "internalType": "address",
          "name": "operator",
          "type": "address"
        },
        {
          "indexed": false,
          "internalType": "bool",
          "name": "approved",
          "type": "bool"
        }
      ],
      "name": "ApprovalForAll",
      "type": "event"
    },
    {
      "anonymous": false,
      "inputs": [
        {
          "indexed": true,
          "internalType": "address",
          "name": "previousOwner",
          "type": "address"
        },
        {
          "indexed": true,
          "internalType": "address",
          "name": "newOwner",
          "type": "address"
        }
      ],
      "name": "OwnershipTransferred",
      "type": "event"
    },
    {
      "anonymous": false,
      "inputs": [
        {
          "indexed": true,
          "internalType": "address",
          "name": "from",
          "type": "address"
        },
        {
          "indexed": true,
          "internalType": "address",
          "name": "to",
          "type": "address"
        },
        {
          "indexed": true,
          "internalType": "uint256",
          "name": "tokenId",
          "type": "uint256"
        }
      ],
      "name": "Transfer",
      "type": "event"
    },
    {
      "inputs": [],
      "name": "allowlistMerkleRoot",
      "outputs": [
        {
          "internalType": "bytes32",
          "name": "",
          "type": "bytes32"
        }
      ],
      "stateMutability": "view",
      "type": "function",
      "constant": true
    },
    {
      "inputs": [
        {
          "internalType": "address",
          "name": "",
          "type": "address"
        }
      ],
      "name": "allowlistSalePurchased",
      "outputs": [
        {
          "internalType": "bool",
          "name": "",
          "type": "bool"
        }
      ],
      "stateMutability": "view",
      "type": "function",
      "constant": true
    },
    {
      "inputs": [
        {
          "internalType": "address",
          "name": "to",
          "type": "address"
        },
        {
          "internalType": "uint256",
          "name": "tokenId",
          "type": "uint256"
        }
      ],
      "name": "approve",
      "outputs": [],
      "stateMutability": "nonpayable",
      "type": "function"
    },
    {
      "inputs": [
        {
          "internalType": "address",
          "name": "owner",
          "type": "address"
        }
      ],
      "name": "balanceOf",
      "outputs": [
        {
          "internalType": "uint256",
          "name": "",
          "type": "uint256"
        }
      ],
      "stateMutability": "view",
      "type": "function",
      "constant": true
    },
    {
      "inputs": [],
      "name": "chainlinkFee",
      "outputs": [
        {
          "internalType": "uint256",
          "name": "",
          "type": "uint256"
        }
      ],
      "stateMutability": "view",
      "type": "function",
      "constant": true
    },
    {
      "inputs": [],
      "name": "chainlinkKeyHash",
      "outputs": [
        {
          "internalType": "bytes32",
          "name": "",
          "type": "bytes32"
        }
      ],
      "stateMutability": "view",
      "type": "function",
      "constant": true
    },
    {
      "inputs": [],
      "name": "dreamersMerkleRoot",
      "outputs": [
        {
          "internalType": "bytes32",
          "name": "",
          "type": "bytes32"
        }
      ],
      "stateMutability": "view",
      "type": "function",
      "constant": true
    },
    {
      "inputs": [
        {
          "internalType": "address",
          "name": "",
          "type": "address"
        }
      ],
      "name": "dreamersPresalePurchased",
      "outputs": [
        {
          "internalType": "bool",
          "name": "",
          "type": "bool"
        }
      ],
      "stateMutability": "view",
      "type": "function",
      "constant": true
    },
    {
      "inputs": [
        {
          "internalType": "uint256",
          "name": "tokenId",
          "type": "uint256"
        }
      ],
      "name": "getApproved",
      "outputs": [
        {
          "internalType": "address",
          "name": "",
          "type": "address"
        }
      ],
      "stateMutability": "view",
      "type": "function",
      "constant": true
    },
    {
      "inputs": [
        {
          "internalType": "address",
          "name": "owner",
          "type": "address"
        },
        {
          "internalType": "address",
          "name": "operator",
          "type": "address"
        }
      ],
      "name": "isApprovedForAll",
      "outputs": [
        {
          "internalType": "bool",
          "name": "",
          "type": "bool"
        }
      ],
      "stateMutability": "view",
      "type": "function",
      "constant": true
    },
    {
      "inputs": [],
      "name": "name",
      "outputs": [
        {
          "internalType": "string",
          "name": "",
          "type": "string"
        }
      ],
      "stateMutability": "view",
      "type": "function",
      "constant": true
    },
    {
      "inputs": [],
      "name": "owner",
      "outputs": [
        {
          "internalType": "address",
          "name": "",
          "type": "address"
        }
      ],
      "stateMutability": "view",
      "type": "function",
      "constant": true
    },
    {
      "inputs": [
        {
          "internalType": "uint256",
          "name": "tokenId",
          "type": "uint256"
        }
      ],
      "name": "ownerOf",
      "outputs": [
        {
          "internalType": "address",
          "name": "",
          "type": "address"
        }
      ],
      "stateMutability": "view",
      "type": "function",
      "constant": true
    },
    {
      "inputs": [],
      "name": "publicBokiRemaining",
      "outputs": [
        {
          "internalType": "uint256",
          "name": "",
          "type": "uint256"
        }
      ],
      "stateMutability": "view",
      "type": "function",
      "constant": true
    },
    {
      "inputs": [],
      "name": "publicMintSigner",
      "outputs": [
        {
          "internalType": "address",
          "name": "",
          "type": "address"
        }
      ],
      "stateMutability": "view",
      "type": "function",
      "constant": true
    },
    {
      "inputs": [
        {
          "internalType": "bytes32",
          "name": "requestId",
          "type": "bytes32"
        },
        {
          "internalType": "uint256",
          "name": "randomness",
          "type": "uint256"
        }
      ],
      "name": "rawFulfillRandomness",
      "outputs": [],
      "stateMutability": "nonpayable",
      "type": "function"
    },
    {
      "inputs": [],
      "name": "renounceOwnership",
      "outputs": [],
      "stateMutability": "nonpayable",
      "type": "function"
    },
    {
      "inputs": [],
      "name": "revealed",
      "outputs": [
        {
          "internalType": "bool",
          "name": "",
          "type": "bool"
        }
      ],
      "stateMutability": "view",
      "type": "function",
      "constant": true
    },
    {
      "inputs": [
        {
          "internalType": "address",
          "name": "from",
          "type": "address"
        },
        {
          "internalType": "address",
          "name": "to",
          "type": "address"
        },
        {
          "internalType": "uint256",
          "name": "tokenId",
          "type": "uint256"
        }
      ],
      "name": "safeTransferFrom",
      "outputs": [],
      "stateMutability": "nonpayable",
      "type": "function"
    },
    {
      "inputs": [
        {
          "internalType": "address",
          "name": "from",
          "type": "address"
        },
        {
          "internalType": "address",
          "name": "to",
          "type": "address"
        },
        {
          "internalType": "uint256",
          "name": "tokenId",
          "type": "uint256"
        },
        {
          "internalType": "bytes",
          "name": "_data",
          "type": "bytes"
        }
      ],
      "name": "safeTransferFrom",
      "outputs": [],
      "stateMutability": "nonpayable",
      "type": "function"
    },
    {
      "inputs": [],
      "name": "saleStatus",
      "outputs": [
        {
          "internalType": "enum Boki.SaleStatus",
          "name": "",
          "type": "uint8"
        }
      ],
      "stateMutability": "view",
      "type": "function",
      "constant": true
    },
    {
      "inputs": [
        {
          "internalType": "address",
          "name": "operator",
          "type": "address"
        },
        {
          "internalType": "bool",
          "name": "approved",
          "type": "bool"
        }
      ],
      "name": "setApprovalForAll",
      "outputs": [],
      "stateMutability": "nonpayable",
      "type": "function"
    },
    {
      "inputs": [
        {
          "internalType": "bytes",
          "name": "",
          "type": "bytes"
        }
      ],
      "name": "signaturesUsed",
      "outputs": [
        {
          "internalType": "bool",
          "name": "",
          "type": "bool"
        }
      ],
      "stateMutability": "view",
      "type": "function",
      "constant": true
    },
    {
      "inputs": [
        {
          "internalType": "bytes4",
          "name": "interfaceId",
          "type": "bytes4"
        }
      ],
      "name": "supportsInterface",
      "outputs": [
        {
          "internalType": "bool",
          "name": "",
          "type": "bool"
        }
      ],
      "stateMutability": "view",
      "type": "function",
      "constant": true
    },
    {
      "inputs": [],
      "name": "symbol",
      "outputs": [
        {
          "internalType": "string",
          "name": "",
          "type": "string"
        }
      ],
      "stateMutability": "view",
      "type": "function",
      "constant": true
    },
    {
      "inputs": [],
      "name": "tokenOffset",
      "outputs": [
        {
          "internalType": "uint256",
          "name": "",
          "type": "uint256"
        }
      ],
      "stateMutability": "view",
      "type": "function",
      "constant": true
    },
    {
      "inputs": [],
      "name": "totalSupply",
      "outputs": [
        {
          "internalType": "uint256",
          "name": "",
          "type": "uint256"
        }
      ],
      "stateMutability": "view",
      "type": "function",
      "constant": true
    },
    {
      "inputs": [
        {
          "internalType": "address",
          "name": "from",
          "type": "address"
        },
        {
          "internalType": "address",
          "name": "to",
          "type": "address"
        },
        {
          "internalType": "uint256",
          "name": "tokenId",
          "type": "uint256"
        }
      ],
      "name": "transferFrom",
      "outputs": [],
      "stateMutability": "nonpayable",
      "type": "function"
    },
    {
      "inputs": [
        {
          "internalType": "address",
          "name": "newOwner",
          "type": "address"
        }
      ],
      "name": "transferOwnership",
      "outputs": [],
      "stateMutability": "nonpayable",
      "type": "function"
    },
    {
      "inputs": [
        {
          "internalType": "string",
          "name": "_URI",
          "type": "string"
        }
      ],
      "name": "setPreRevealURI",
      "outputs": [],
      "stateMutability": "nonpayable",
      "type": "function"
    },
    {
      "inputs": [
        {
          "internalType": "string",
          "name": "_URI",
          "type": "string"
        }
      ],
      "name": "setPostRevealBaseURI",
      "outputs": [],
      "stateMutability": "nonpayable",
      "type": "function"
    },
    {
      "inputs": [
        {
          "internalType": "uint256",
          "name": "_tokenId",
          "type": "uint256"
        }
      ],
      "name": "tokenURI",
      "outputs": [
        {
          "internalType": "string",
          "name": "",
          "type": "string"
        }
      ],
      "stateMutability": "view",
      "type": "function",
      "constant": true
    },
    {
      "inputs": [
        {
          "internalType": "enum Boki.SaleStatus",
          "name": "_status",
          "type": "uint8"
        }
      ],
      "name": "setSaleStatus",
      "outputs": [],
      "stateMutability": "nonpayable",
      "type": "function"
    },
    {
      "inputs": [
        {
          "internalType": "bytes32",
          "name": "_dreamersMerkleRoot",
          "type": "bytes32"
        },
        {
          "internalType": "bytes32",
          "name": "_allowlistMerkleRoot",
          "type": "bytes32"
        }
      ],
      "name": "setMerkleRoots",
      "outputs": [],
      "stateMutability": "nonpayable",
      "type": "function"
    },
    {
      "inputs": [
        {
          "internalType": "bytes32[]",
          "name": "_proof",
          "type": "bytes32[]"
        }
      ],
      "name": "dreamersSale",
      "outputs": [],
      "stateMutability": "payable",
      "type": "function",
      "payable": true
    },
    {
      "inputs": [
        {
          "internalType": "bytes32[]",
          "name": "_proof",
          "type": "bytes32[]"
        }
      ],
      "name": "allowlistSale",
      "outputs": [],
      "stateMutability": "payable",
      "type": "function",
      "payable": true
    },
    {
      "inputs": [
        {
          "internalType": "uint256",
          "name": "_quantity",
          "type": "uint256"
        },
        {
          "internalType": "uint256",
          "name": "_nonce",
          "type": "uint256"
        },
        {
          "internalType": "bytes",
          "name": "_signature",
          "type": "bytes"
        }
      ],
      "name": "bokiBirth",
      "outputs": [],
      "stateMutability": "payable",
      "type": "function",
      "payable": true
    },
    {
      "inputs": [
        {
          "internalType": "uint256",
          "name": "_fee",
          "type": "uint256"
        },
        {
          "internalType": "bytes32",
          "name": "_keyhash",
          "type": "bytes32"
        }
      ],
      "name": "setChainlinkConfig",
      "outputs": [],
      "stateMutability": "nonpayable",
      "type": "function"
    },
    {
      "inputs": [
        {
          "internalType": "string",
          "name": "_newURI",
          "type": "string"
        }
      ],
      "name": "startReveal",
      "outputs": [
        {
          "internalType": "bytes32",
          "name": "requestId",
          "type": "bytes32"
        }
      ],
      "stateMutability": "nonpayable",
      "type": "function"
    },
    {
      "inputs": [],
      "name": "withdrawFunds",
      "outputs": [],
      "stateMutability": "nonpayable",
      "type": "function"
    },
    {
      "inputs": [
        {
          "internalType": "address",
          "name": "_signer",
          "type": "address"
        }
      ],
      "name": "setPublicMintSigner",
      "outputs": [],
      "stateMutability": "nonpayable",
      "type": "function"
    },
    {
      "inputs": [
        {
          "internalType": "address",
          "name": "_owner",
          "type": "address"
        }
      ],
      "name": "numberMinted",
      "outputs": [
        {
          "internalType": "uint256",
          "name": "",
          "type": "uint256"
        }
      ],
      "stateMutability": "view",
      "type": "function",
      "constant": true
    },
    {
      "inputs": [
        {
          "internalType": "uint256",
          "name": "_tokenId",
          "type": "uint256"
        }
      ],
      "name": "getOwnershipData",
      "outputs": [
        {
          "components": [
            {
              "internalType": "address",
              "name": "addr",
              "type": "address"
            },
            {
              "internalType": "uint64",
              "name": "startTimestamp",
              "type": "uint64"
            },
            {
              "internalType": "bool",
              "name": "burned",
              "type": "bool"
            }
          ],
          "internalType": "struct ERC721A.TokenOwnership",
          "name": "",
          "type": "tuple"
        }
      ],
      "stateMutability": "view",
      "type": "function",
      "constant": true
    }
  ],
  "bytecode": "0x60e06040526000600a60006101000a81548160ff021916908360048111156200002d576200002c62000943565b5b02179055506050600d553480156200004457600080fd5b50604051620067643803806200676483398181016040528101906200006a919062000bea565b83836040518060400160405280600481526020017f426f6b69000000000000000000000000000000000000000000000000000000008152506040518060400160405280600481526020017f424f4b49000000000000000000000000000000000000000000000000000000008152508160029080519060200190620000f092919062000893565b5080600390805190602001906200010992919062000893565b506200011a6200023860201b60201c565b600081905550505062000142620001366200023d60201b60201c565b6200024560201b60201c565b8173ffffffffffffffffffffffffffffffffffffffff1660a08173ffffffffffffffffffffffffffffffffffffffff16815250508073ffffffffffffffffffffffffffffffffffffffff1660808173ffffffffffffffffffffffffffffffffffffffff1681525050505085600b9080519060200190620001c492919062000893565b508473ffffffffffffffffffffffffffffffffffffffff1660c08173ffffffffffffffffffffffffffffffffffffffff168152505081601681905550806017819055506200022c32600a6040518060200160405280600081525060006200030b60201b60201c565b50505050505062000e6b565b600090565b600033905090565b6000600860009054906101000a900473ffffffffffffffffffffffffffffffffffffffff16905081600860006101000a81548173ffffffffffffffffffffffffffffffffffffffff021916908373ffffffffffffffffffffffffffffffffffffffff1602179055508173ffffffffffffffffffffffffffffffffffffffff168173ffffffffffffffffffffffffffffffffffffffff167f8be0079c531659141344cd1fd0a4f28419497f9722a3daafe3b4186f6b6457e060405160405180910390a35050565b600080549050600073ffffffffffffffffffffffffffffffffffffffff168573ffffffffffffffffffffffffffffffffffffffff160362000378576040517f2e07630000000000000000000000000000000000000000000000000000000000815260040160405180910390fd5b60008403620003b3576040517fb562e8dd00000000000000000000000000000000000000000000000000000000815260040160405180910390fd5b620003c860008683876200070360201b60201c565b83600560008773ffffffffffffffffffffffffffffffffffffffff1673ffffffffffffffffffffffffffffffffffffffff16815260200190815260200160002060000160008282829054906101000a900467ffffffffffffffff160192506101000a81548167ffffffffffffffff021916908367ffffffffffffffff16021790555083600560008773ffffffffffffffffffffffffffffffffffffffff1673ffffffffffffffffffffffffffffffffffffffff16815260200190815260200160002060000160088282829054906101000a900467ffffffffffffffff160192506101000a81548167ffffffffffffffff021916908367ffffffffffffffff160217905550846004600083815260200190815260200160002060000160006101000a81548173ffffffffffffffffffffffffffffffffffffffff021916908373ffffffffffffffffffffffffffffffffffffffff160217905550426004600083815260200190815260200160002060000160146101000a81548167ffffffffffffffff021916908367ffffffffffffffff160217905550600081905060008582019050838015620005a057506200059f8773ffffffffffffffffffffffffffffffffffffffff166200070960201b62001fa31760201c565b5b1562000672575b818773ffffffffffffffffffffffffffffffffffffffff16600073ffffffffffffffffffffffffffffffffffffffff167fddf252ad1be2c89b69c2b068fc378daa952ba7f163c4a11628f55a4df523b3ef60405160405180910390a46200061e60008884806001019550886200072c60201b60201c565b62000655576040517fd1a57ed600000000000000000000000000000000000000000000000000000000815260040160405180910390fd5b808203620005a75782600054146200066c57600080fd5b620006de565b5b818060010192508773ffffffffffffffffffffffffffffffffffffffff16600073ffffffffffffffffffffffffffffffffffffffff167fddf252ad1be2c89b69c2b068fc378daa952ba7f163c4a11628f55a4df523b3ef60405160405180910390a480820362000673575b816000819055505050620006fc60008683876200088d60201b60201c565b5050505050565b50505050565b6000808273ffffffffffffffffffffffffffffffffffffffff163b119050919050565b60008373ffffffffffffffffffffffffffffffffffffffff1663150b7a026200075a6200023d60201b60201c565b8786866040518563ffffffff1660e01b81526004016200077e949392919062000d24565b6020604051808303816000875af1925050508015620007bd57506040513d601f19601f82011682018060405250810190620007ba919062000dd5565b60015b6200083a573d8060008114620007f0576040519150601f19603f3d011682016040523d82523d6000602084013e620007f5565b606091505b50600081510362000832576040517fd1a57ed600000000000000000000000000000000000000000000000000000000815260040160405180910390fd5b805181602001fd5b63150b7a0260e01b7bffffffffffffffffffffffffffffffffffffffffffffffffffffffff1916817bffffffffffffffffffffffffffffffffffffffffffffffffffffffff191614915050949350505050565b50505050565b828054620008a19062000e36565b90600052602060002090601f016020900481019282620008c5576000855562000911565b82601f10620008e057805160ff191683800117855562000911565b8280016001018555821562000911579182015b8281111562000910578251825591602001919060010190620008f3565b5b50905062000920919062000924565b5090565b5b808211156200093f57600081600090555060010162000925565b5090565b7f4e487b7100000000000000000000000000000000000000000000000000000000600052602160045260246000fd5b6000604051905090565b600080fd5b600080fd5b600080fd5b600080fd5b6000601f19601f8301169050919050565b7f4e487b7100000000000000000000000000000000000000000000000000000000600052604160045260246000fd5b620009db8262000990565b810181811067ffffffffffffffff82111715620009fd57620009fc620009a1565b5b80604052505050565b600062000a1262000972565b905062000a208282620009d0565b919050565b600067ffffffffffffffff82111562000a435762000a42620009a1565b5b62000a4e8262000990565b9050602081019050919050565b60005b8381101562000a7b57808201518184015260208101905062000a5e565b8381111562000a8b576000848401525b50505050565b600062000aa862000aa28462000a25565b62000a06565b90508281526020810184848401111562000ac75762000ac66200098b565b5b62000ad484828562000a5b565b509392505050565b600082601f83011262000af45762000af362000986565b5b815162000b0684826020860162000a91565b91505092915050565b600073ffffffffffffffffffffffffffffffffffffffff82169050919050565b600062000b3c8262000b0f565b9050919050565b62000b4e8162000b2f565b811462000b5a57600080fd5b50565b60008151905062000b6e8162000b43565b92915050565b6000819050919050565b62000b898162000b74565b811462000b9557600080fd5b50565b60008151905062000ba98162000b7e565b92915050565b6000819050919050565b62000bc48162000baf565b811462000bd057600080fd5b50565b60008151905062000be48162000bb9565b92915050565b60008060008060008060c0878903121562000c0a5762000c096200097c565b5b600087015167ffffffffffffffff81111562000c2b5762000c2a62000981565b5b62000c3989828a0162000adc565b965050602062000c4c89828a0162000b5d565b955050604062000c5f89828a0162000b5d565b945050606062000c7289828a0162000b5d565b935050608062000c8589828a0162000b98565b92505060a062000c9889828a0162000bd3565b9150509295509295509295565b62000cb08162000b2f565b82525050565b62000cc18162000baf565b82525050565b600081519050919050565b600082825260208201905092915050565b600062000cf08262000cc7565b62000cfc818562000cd2565b935062000d0e81856020860162000a5b565b62000d198162000990565b840191505092915050565b600060808201905062000d3b600083018762000ca5565b62000d4a602083018662000ca5565b62000d59604083018562000cb6565b818103606083015262000d6d818462000ce3565b905095945050505050565b60007fffffffff0000000000000000000000000000000000000000000000000000000082169050919050565b62000daf8162000d78565b811462000dbb57600080fd5b50565b60008151905062000dcf8162000da4565b92915050565b60006020828403121562000dee5762000ded6200097c565b5b600062000dfe8482850162000dbe565b91505092915050565b7f4e487b7100000000000000000000000000000000000000000000000000000000600052602260045260246000fd5b6000600282049050600182168062000e4f57607f821691505b60208210810362000e655762000e6462000e07565b5b50919050565b60805160a05160c0516158bb62000ea96000396000610d800152600081816113870152612a0401526000818161103f01526129c801526158bb6000f3fe60806040526004361061025c5760003560e01c806375d7741b11610144578063b88d4fde116100b6578063db292e7f1161007a578063db292e7f146108e1578063dc33e6811461090a578063dc8c57b414610947578063e985e9c514610972578063f2fde38b146109af578063f9020e33146109d85761025c565b8063b88d4fde146107f7578063bef7d63b14610820578063c87b56dd1461084b578063ce4fe56f14610888578063d60cd695146108c55761025c565b806394985ddd1161010857806394985ddd146106f857806394c4303a1461072157806394d15abb1461075e57806395d89b411461077a5780639a48eb51146107a5578063a22cb465146107ce5761025c565b806375d7741b1461060c578063784754f4146106495780637ac98be1146106655780638da5cb5b146106905780639231ab2a146106bb5761025c565b806329d7871b116101dd5780634891ad88116101a15780634891ad88146104fe57806351830227146105275780636352211e146105525780636e5691771461058f57806370a08231146105b8578063715018a6146105f55761025c565b806329d7871b146104195780632a85db55146104445780633fe05a2c1461046d57806342842e0e146104aa5780634586fb4e146104d35761025c565b8063161b7f9311610224578063161b7f931461035857806318160ddd1461038357806323b872dd146103ae57806324600fc3146103d7578063293108e0146103ee5761025c565b806301ffc9a71461026157806306fdde031461029e578063081812fc146102c9578063095ea7b3146103065780630c9654941461032f575b600080fd5b34801561026d57600080fd5b5061028860048036038101906102839190613b3b565b610a03565b6040516102959190613b83565b60405180910390f35b3480156102aa57600080fd5b506102b3610ae5565b6040516102c09190613c37565b60405180910390f35b3480156102d557600080fd5b506102f060048036038101906102eb9190613c8f565b610b77565b6040516102fd9190613cfd565b60405180910390f35b34801561031257600080fd5b5061032d60048036038101906103289190613d44565b610bf3565b005b34801561033b57600080fd5b5061035660048036038101906103519190613d84565b610cfd565b005b34801561036457600080fd5b5061036d610d49565b60405161037a9190613dca565b60405180910390f35b34801561038f57600080fd5b50610398610d4f565b6040516103a59190613df4565b60405180910390f35b3480156103ba57600080fd5b506103d560048036038101906103d09190613e0f565b610d66565b005b3480156103e357600080fd5b506103ec610d76565b005b3480156103fa57600080fd5b50610403610de7565b6040516104109190613dca565b60405180910390f35b34801561042557600080fd5b5061042e610ded565b60405161043b9190613df4565b60405180910390f35b34801561045057600080fd5b5061046b60048036038101906104669190613f97565b610df3565b005b34801561047957600080fd5b50610494600480360381019061048f9190614081565b610e15565b6040516104a19190613b83565b60405180910390f35b3480156104b657600080fd5b506104d160048036038101906104cc9190613e0f565b610e4b565b005b3480156104df57600080fd5b506104e8610e6b565b6040516104f59190613dca565b60405180910390f35b34801561050a57600080fd5b50610525600480360381019061052091906140ef565b610e71565b005b34801561053357600080fd5b5061053c610ea6565b6040516105499190613b83565b60405180910390f35b34801561055e57600080fd5b5061057960048036038101906105749190613c8f565b610eb9565b6040516105869190613cfd565b60405180910390f35b34801561059b57600080fd5b506105b660048036038101906105b19190614148565b610ecf565b005b3480156105c457600080fd5b506105df60048036038101906105da9190613d84565b610ee9565b6040516105ec9190613df4565b60405180910390f35b34801561060157600080fd5b5061060a610fb8565b005b34801561061857600080fd5b50610633600480360381019061062e9190613f97565b610fcc565b6040516106409190613dca565b60405180910390f35b610663600480360381019061065e9190614250565b6110f5565b005b34801561067157600080fd5b5061067a61133d565b6040516106879190613df4565b60405180910390f35b34801561069c57600080fd5b506106a5611343565b6040516106b29190613cfd565b60405180910390f35b3480156106c757600080fd5b506106e260048036038101906106dd9190613c8f565b61136d565b6040516106ef919061431c565b60405180910390f35b34801561070457600080fd5b5061071f600480360381019061071a9190614337565b611385565b005b34801561072d57600080fd5b5061074860048036038101906107439190613d84565b611421565b6040516107559190613b83565b60405180910390f35b61077860048036038101906107739190614250565b611441565b005b34801561078657600080fd5b5061078f6117ed565b60405161079c9190613c37565b60405180910390f35b3480156107b157600080fd5b506107cc60048036038101906107c79190614377565b61187f565b005b3480156107da57600080fd5b506107f560048036038101906107f091906143e3565b611899565b005b34801561080357600080fd5b5061081e60048036038101906108199190614423565b611a10565b005b34801561082c57600080fd5b50610835611a8c565b6040516108429190613cfd565b60405180910390f35b34801561085757600080fd5b50610872600480360381019061086d9190613c8f565b611ab2565b60405161087f9190613c37565b60405180910390f35b34801561089457600080fd5b506108af60048036038101906108aa9190613d84565b611bfa565b6040516108bc9190613b83565b60405180910390f35b6108df60048036038101906108da91906144a6565b611c1a565b005b3480156108ed57600080fd5b5061090860048036038101906109039190613f97565b611e3f565b005b34801561091657600080fd5b50610931600480360381019061092c9190613d84565b611e61565b60405161093e9190613df4565b60405180910390f35b34801561095357600080fd5b5061095c611e73565b6040516109699190613df4565b60405180910390f35b34801561097e57600080fd5b5061099960048036038101906109949190614515565b611e79565b6040516109a69190613b83565b60405180910390f35b3480156109bb57600080fd5b506109d660048036038101906109d19190613d84565b611f0d565b005b3480156109e457600080fd5b506109ed611f90565b6040516109fa91906145cc565b60405180910390f35b60007f80ac58cd000000000000000000000000000000000000000000000000000000007bffffffffffffffffffffffffffffffffffffffffffffffffffffffff1916827bffffffffffffffffffffffffffffffffffffffffffffffffffffffff19161480610ace57507f5b5e139f000000000000000000000000000000000000000000000000000000007bffffffffffffffffffffffffffffffffffffffffffffffffffffffff1916827bffffffffffffffffffffffffffffffffffffffffffffffffffffffff1916145b80610ade5750610add82611fc6565b5b9050919050565b606060028054610af490614616565b80601f0160208091040260200160405190810160405280929190818152602001828054610b2090614616565b8015610b6d5780601f10610b4257610100808354040283529160200191610b6d565b820191906000526020600020905b815481529060010190602001808311610b5057829003601f168201915b5050505050905090565b6000610b8282612030565b610bb8576040517fcf4700e400000000000000000000000000000000000000000000000000000000815260040160405180910390fd5b6006600083815260200190815260200160002060009054906101000a900473ffffffffffffffffffffffffffffffffffffffff169050919050565b6000610bfe82610eb9565b90508073ffffffffffffffffffffffffffffffffffffffff168373ffffffffffffffffffffffffffffffffffffffff1603610c65576040517f943f7b8c00000000000000000000000000000000000000000000000000000000815260040160405180910390fd5b8073ffffffffffffffffffffffffffffffffffffffff16610c8461207e565b73ffffffffffffffffffffffffffffffffffffffff1614158015610cb65750610cb481610caf61207e565b611e79565b155b15610ced576040517fcfb3b94200000000000000000000000000000000000000000000000000000000815260040160405180910390fd5b610cf8838383612086565b505050565b610d05612138565b80601060006101000a81548173ffffffffffffffffffffffffffffffffffffffff021916908373ffffffffffffffffffffffffffffffffffffffff16021790555050565b600e5481565b6000610d596121b6565b6001546000540303905090565b610d718383836121bb565b505050565b610d7e612138565b7f000000000000000000000000000000000000000000000000000000000000000073ffffffffffffffffffffffffffffffffffffffff166108fc479081150290604051600060405180830381858888f19350505050158015610de4573d6000803e3d6000fd5b50565b600f5481565b600d5481565b610dfb612138565b80600b9080519060200190610e119291906139e9565b5050565b6013818051602081018201805184825260208301602085012081835280955050505050506000915054906101000a900460ff1681565b610e6683838360405180602001604052806000815250611a10565b505050565b60165481565b610e79612138565b80600a60006101000a81548160ff02191690836004811115610e9e57610e9d614555565b5b021790555050565b601460009054906101000a900460ff1681565b6000610ec48261266f565b600001519050919050565b610ed7612138565b81601781905550806016819055505050565b60008073ffffffffffffffffffffffffffffffffffffffff168273ffffffffffffffffffffffffffffffffffffffff1603610f50576040517f8f4eb60400000000000000000000000000000000000000000000000000000000815260040160405180910390fd5b600560008373ffffffffffffffffffffffffffffffffffffffff1673ffffffffffffffffffffffffffffffffffffffff16815260200190815260200160002060000160009054906101000a900467ffffffffffffffff1667ffffffffffffffff169050919050565b610fc0612138565b610fca60006128fe565b565b6000610fd6612138565b601460009054906101000a900460ff1615611026576040517f08c379a000000000000000000000000000000000000000000000000000000000815260040161101d90614693565b60405180910390fd5b81600c908051906020019061103c9291906139e9565b507f000000000000000000000000000000000000000000000000000000000000000073ffffffffffffffffffffffffffffffffffffffff166323b872dd33306017546040518463ffffffff1660e01b815260040161109c939291906146b3565b6020604051808303816000875af11580156110bb573d6000803e3d6000fd5b505050506040513d601f19601f820116820180604052508101906110df91906146ff565b506110ee6016546017546129c4565b9050919050565b3373ffffffffffffffffffffffffffffffffffffffff163273ffffffffffffffffffffffffffffffffffffffff1614611163576040517f08c379a000000000000000000000000000000000000000000000000000000000815260040161115a90614778565b60405180910390fd5b6003600481111561117757611176614555565b5b600a60009054906101000a900460ff16600481111561119957611198614555565b5b146111d9576040517f08c379a00000000000000000000000000000000000000000000000000000000081526004016111d0906147e4565b60405180910390fd5b61120c81600f54336040516020016111f1919061484c565b60405160208183030381529060405280519060200120612b17565b61124b576040517f08c379a0000000000000000000000000000000000000000000000000000000008152600401611242906148b3565b60405180910390fd5b601260003373ffffffffffffffffffffffffffffffffffffffff1673ffffffffffffffffffffffffffffffffffffffff16815260200190815260200160002060009054906101000a900460ff16156112d8576040517f08c379a00000000000000000000000000000000000000000000000000000000081526004016112cf9061491f565b60405180910390fd5b6001601260003373ffffffffffffffffffffffffffffffffffffffff1673ffffffffffffffffffffffffffffffffffffffff16815260200190815260200160002060006101000a81548160ff02191690831515021790555061133a6001612b2e565b50565b60175481565b6000600860009054906101000a900473ffffffffffffffffffffffffffffffffffffffff16905090565b611375613a6f565b61137e8261266f565b9050919050565b7f000000000000000000000000000000000000000000000000000000000000000073ffffffffffffffffffffffffffffffffffffffff163373ffffffffffffffffffffffffffffffffffffffff1614611413576040517f08c379a000000000000000000000000000000000000000000000000000000000815260040161140a9061498b565b60405180910390fd5b61141d8282612c47565b5050565b60126020528060005260406000206000915054906101000a900460ff1681565b3373ffffffffffffffffffffffffffffffffffffffff163273ffffffffffffffffffffffffffffffffffffffff16146114af576040517f08c379a00000000000000000000000000000000000000000000000000000000081526004016114a690614778565b60405180910390fd5b600160048111156114c3576114c2614555565b5b600a60009054906101000a900460ff1660048111156114e5576114e4614555565b5b1480611524575060036004811115611500576114ff614555565b5b600a60009054906101000a900460ff16600481111561152257611521614555565b5b145b611563576040517f08c379a000000000000000000000000000000000000000000000000000000000815260040161155a906149f7565b60405180910390fd5b61159681600e543360405160200161157b919061484c565b60405160208183030381529060405280519060200120612b17565b6115d5576040517f08c379a00000000000000000000000000000000000000000000000000000000081526004016115cc90614a63565b60405180910390fd5b600160048111156115e9576115e8614555565b5b600a60009054906101000a900460ff16600481111561160b5761160a614555565b5b036116fa57601160003373ffffffffffffffffffffffffffffffffffffffff1673ffffffffffffffffffffffffffffffffffffffff16815260200190815260200160002060009054906101000a900460ff161561169d576040517f08c379a000000000000000000000000000000000000000000000000000000000815260040161169490614af5565b60405180910390fd5b6001601160003373ffffffffffffffffffffffffffffffffffffffff1673ffffffffffffffffffffffffffffffffffffffff16815260200190815260200160002060006101000a81548160ff0219169083151502179055506117e0565b601260003373ffffffffffffffffffffffffffffffffffffffff1673ffffffffffffffffffffffffffffffffffffffff16815260200190815260200160002060009054906101000a900460ff1615611787576040517f08c379a000000000000000000000000000000000000000000000000000000000815260040161177e90614b87565b60405180910390fd5b6001601260003373ffffffffffffffffffffffffffffffffffffffff1673ffffffffffffffffffffffffffffffffffffffff16815260200190815260200160002060006101000a81548160ff0219169083151502179055505b6117ea6001612b2e565b50565b6060600380546117fc90614616565b80601f016020809104026020016040519081016040528092919081815260200182805461182890614616565b80156118755780601f1061184a57610100808354040283529160200191611875565b820191906000526020600020905b81548152906001019060200180831161185857829003601f168201915b5050505050905090565b611887612138565b81600e8190555080600f819055505050565b6118a161207e565b73ffffffffffffffffffffffffffffffffffffffff168273ffffffffffffffffffffffffffffffffffffffff1603611905576040517fb06307db00000000000000000000000000000000000000000000000000000000815260040160405180910390fd5b806007600061191261207e565b73ffffffffffffffffffffffffffffffffffffffff1673ffffffffffffffffffffffffffffffffffffffff16815260200190815260200160002060008473ffffffffffffffffffffffffffffffffffffffff1673ffffffffffffffffffffffffffffffffffffffff16815260200190815260200160002060006101000a81548160ff0219169083151502179055508173ffffffffffffffffffffffffffffffffffffffff166119bf61207e565b73ffffffffffffffffffffffffffffffffffffffff167f17307eab39ab6107e8899845ad3d59bd9653f200f220920489ca2b5937696c3183604051611a049190613b83565b60405180910390a35050565b611a1b8484846121bb565b611a3a8373ffffffffffffffffffffffffffffffffffffffff16611fa3565b8015611a4f5750611a4d84848484612ccf565b155b15611a86576040517fd1a57ed600000000000000000000000000000000000000000000000000000000815260040160405180910390fd5b50505050565b601060009054906101000a900473ffffffffffffffffffffffffffffffffffffffff1681565b6060611abd82612030565b611afc576040517f08c379a0000000000000000000000000000000000000000000000000000000008152600401611af390614c19565b60405180910390fd5b601460009054906101000a900460ff16611ba257600b8054611b1d90614616565b80601f0160208091040260200160405190810160405280929190818152602001828054611b4990614616565b8015611b965780601f10611b6b57610100808354040283529160200191611b96565b820191906000526020600020905b815481529060010190602001808311611b7957829003601f168201915b50505050509050611bf5565b6000611bac610d4f565b60155484611bba9190614c68565b611bc49190614ced565b9050600c611bd182612e1f565b604051602001611be2929190614dee565b6040516020818303038152906040529150505b919050565b60116020528060005260406000206000915054906101000a900460ff1681565b3373ffffffffffffffffffffffffffffffffffffffff163273ffffffffffffffffffffffffffffffffffffffff1614611c88576040517f08c379a0000000000000000000000000000000000000000000000000000000008152600401611c7f90614778565b60405180910390fd5b60026004811115611c9c57611c9b614555565b5b600a60009054906101000a900460ff166004811115611cbe57611cbd614555565b5b1480611cfc5750600480811115611cd857611cd7614555565b5b600a60009054906101000a900460ff166004811115611cfa57611cf9614555565b5b145b611d3b576040517f08c379a0000000000000000000000000000000000000000000000000000000008152600401611d3290614e5e565b60405180910390fd5b600480811115611d4e57611d4d614555565b5b600a60009054906101000a900460ff166004811115611d7057611d6f614555565b5b1480611d8a5750600083600d54611d879190614e7e565b10155b611dc9576040517f08c379a0000000000000000000000000000000000000000000000000000000008152600401611dc090614efe565b60405180910390fd5b6003831115611e0d576040517f08c379a0000000000000000000000000000000000000000000000000000000008152600401611e0490614f6a565b60405180910390fd5b611e18338383612f7f565b82600d6000828254611e2a9190614e7e565b92505081905550611e3a83612b2e565b505050565b611e47612138565b80600c9080519060200190611e5d9291906139e9565b5050565b6000611e6c82613093565b9050919050565b60155481565b6000600760008473ffffffffffffffffffffffffffffffffffffffff1673ffffffffffffffffffffffffffffffffffffffff16815260200190815260200160002060008373ffffffffffffffffffffffffffffffffffffffff1673ffffffffffffffffffffffffffffffffffffffff16815260200190815260200160002060009054906101000a900460ff16905092915050565b611f15612138565b600073ffffffffffffffffffffffffffffffffffffffff168173ffffffffffffffffffffffffffffffffffffffff1603611f84576040517f08c379a0000000000000000000000000000000000000000000000000000000008152600401611f7b90614ffc565b60405180910390fd5b611f8d816128fe565b50565b600a60009054906101000a900460ff1681565b6000808273ffffffffffffffffffffffffffffffffffffffff163b119050919050565b60007f01ffc9a7000000000000000000000000000000000000000000000000000000007bffffffffffffffffffffffffffffffffffffffffffffffffffffffff1916827bffffffffffffffffffffffffffffffffffffffffffffffffffffffff1916149050919050565b60008161203b6121b6565b1115801561204a575060005482105b8015612077575060046000838152602001908152602001600020600001601c9054906101000a900460ff16155b9050919050565b600033905090565b826006600084815260200190815260200160002060006101000a81548173ffffffffffffffffffffffffffffffffffffffff021916908373ffffffffffffffffffffffffffffffffffffffff160217905550818373ffffffffffffffffffffffffffffffffffffffff168273ffffffffffffffffffffffffffffffffffffffff167f8c5be1e5ebec7d5bd14f71427d1e84f3dd0314c0f7b2291e5b200ac8c7c3b92560405160405180910390a4505050565b61214061207e565b73ffffffffffffffffffffffffffffffffffffffff1661215e611343565b73ffffffffffffffffffffffffffffffffffffffff16146121b4576040517f08c379a00000000000000000000000000000000000000000000000000000000081526004016121ab90615068565b60405180910390fd5b565b600090565b60006121c68261266f565b90508373ffffffffffffffffffffffffffffffffffffffff16816000015173ffffffffffffffffffffffffffffffffffffffff1614612231576040517fa114810000000000000000000000000000000000000000000000000000000000815260040160405180910390fd5b60008473ffffffffffffffffffffffffffffffffffffffff1661225261207e565b73ffffffffffffffffffffffffffffffffffffffff16148061228157506122808561227b61207e565b611e79565b5b806122c6575061228f61207e565b73ffffffffffffffffffffffffffffffffffffffff166122ae84610b77565b73ffffffffffffffffffffffffffffffffffffffff16145b9050806122ff576040517f59c896be00000000000000000000000000000000000000000000000000000000815260040160405180910390fd5b600073ffffffffffffffffffffffffffffffffffffffff168473ffffffffffffffffffffffffffffffffffffffff1603612365576040517fea553b3400000000000000000000000000000000000000000000000000000000815260040160405180910390fd5b61237285858560016130fd565b61237e60008487612086565b6001600560008773ffffffffffffffffffffffffffffffffffffffff1673ffffffffffffffffffffffffffffffffffffffff16815260200190815260200160002060000160008282829054906101000a900467ffffffffffffffff160392506101000a81548167ffffffffffffffff021916908367ffffffffffffffff1602179055506001600560008673ffffffffffffffffffffffffffffffffffffffff1673ffffffffffffffffffffffffffffffffffffffff16815260200190815260200160002060000160008282829054906101000a900467ffffffffffffffff160192506101000a81548167ffffffffffffffff021916908367ffffffffffffffff1602179055506000600460008581526020019081526020016000209050848160000160006101000a81548173ffffffffffffffffffffffffffffffffffffffff021916908373ffffffffffffffffffffffffffffffffffffffff160217905550428160000160146101000a81548167ffffffffffffffff021916908367ffffffffffffffff16021790555060006001850190506000600460008381526020019081526020016000209050600073ffffffffffffffffffffffffffffffffffffffff168160000160009054906101000a900473ffffffffffffffffffffffffffffffffffffffff1673ffffffffffffffffffffffffffffffffffffffff16036125fd5760005482146125fc57878160000160006101000a81548173ffffffffffffffffffffffffffffffffffffffff021916908373ffffffffffffffffffffffffffffffffffffffff16021790555084602001518160000160146101000a81548167ffffffffffffffff021916908367ffffffffffffffff1602179055505b5b505050828473ffffffffffffffffffffffffffffffffffffffff168673ffffffffffffffffffffffffffffffffffffffff167fddf252ad1be2c89b69c2b068fc378daa952ba7f163c4a11628f55a4df523b3ef60405160405180910390a46126688585856001613103565b5050505050565b612677613a6f565b6000829050806126856121b6565b11158015612694575060005481105b156128c7576000600460008381526020019081526020016000206040518060600160405290816000820160009054906101000a900473ffffffffffffffffffffffffffffffffffffffff1673ffffffffffffffffffffffffffffffffffffffff1673ffffffffffffffffffffffffffffffffffffffff1681526020016000820160149054906101000a900467ffffffffffffffff1667ffffffffffffffff1667ffffffffffffffff16815260200160008201601c9054906101000a900460ff161515151581525050905080604001516128c557600073ffffffffffffffffffffffffffffffffffffffff16816000015173ffffffffffffffffffffffffffffffffffffffff16146127a95780925050506128f9565b5b6001156128c457818060019003925050600460008381526020019081526020016000206040518060600160405290816000820160009054906101000a900473ffffffffffffffffffffffffffffffffffffffff1673ffffffffffffffffffffffffffffffffffffffff1673ffffffffffffffffffffffffffffffffffffffff1681526020016000820160149054906101000a900467ffffffffffffffff1667ffffffffffffffff1667ffffffffffffffff16815260200160008201601c9054906101000a900460ff1615151515815250509050600073ffffffffffffffffffffffffffffffffffffffff16816000015173ffffffffffffffffffffffffffffffffffffffff16146128bf5780925050506128f9565b6127aa565b5b505b6040517fdf2d9b4200000000000000000000000000000000000000000000000000000000815260040160405180910390fd5b919050565b6000600860009054906101000a900473ffffffffffffffffffffffffffffffffffffffff16905081600860006101000a81548173ffffffffffffffffffffffffffffffffffffffff021916908373ffffffffffffffffffffffffffffffffffffffff1602179055508173ffffffffffffffffffffffffffffffffffffffff168173ffffffffffffffffffffffffffffffffffffffff167f8be0079c531659141344cd1fd0a4f28419497f9722a3daafe3b4186f6b6457e060405160405180910390a35050565b60007f000000000000000000000000000000000000000000000000000000000000000073ffffffffffffffffffffffffffffffffffffffff16634000aea07f000000000000000000000000000000000000000000000000000000000000000084866000604051602001612a38929190615088565b6040516020818303038152906040526040518463ffffffff1660e01b8152600401612a6593929190615106565b6020604051808303816000875af1158015612a84573d6000803e3d6000fd5b505050506040513d601f19601f82011682018060405250810190612aa891906146ff565b506000612acb846000306009600089815260200190815260200160002054613109565b905060016009600086815260200190815260200160002054612aed9190614c68565b6009600086815260200190815260200160002081905550612b0e8482613145565b91505092915050565b600082612b248584613178565b1490509392505050565b601460009054906101000a900460ff1615612b7e576040517f08c379a0000000000000000000000000000000000000000000000000000000008152600401612b7590615190565b60405180910390fd5b8066038d7ea4c68000612b9191906151b0565b3414612bd2576040517f08c379a0000000000000000000000000000000000000000000000000000000008152600401612bc990615256565b60405180910390fd5b606481612bdd610d4f565b612be79190614c68565b1115612c28576040517f08c379a0000000000000000000000000000000000000000000000000000000008152600401612c1f906152c2565b60405180910390fd5b612c4433826040518060200160405280600081525060006131ce565b50565b601460009054906101000a900460ff1615612c97576040517f08c379a0000000000000000000000000000000000000000000000000000000008152600401612c8e90614693565b60405180910390fd5b6001601460006101000a81548160ff021916908315150217905550612cba610d4f565b81612cc59190614ced565b6015819055505050565b60008373ffffffffffffffffffffffffffffffffffffffff1663150b7a02612cf561207e565b8786866040518563ffffffff1660e01b8152600401612d1794939291906152e2565b6020604051808303816000875af1925050508015612d5357506040513d601f19601f82011682018060405250810190612d509190615343565b60015b612dcc573d8060008114612d83576040519150601f19603f3d011682016040523d82523d6000602084013e612d88565b606091505b506000815103612dc4576040517fd1a57ed600000000000000000000000000000000000000000000000000000000815260040160405180910390fd5b805181602001fd5b63150b7a0260e01b7bffffffffffffffffffffffffffffffffffffffffffffffffffffffff1916817bffffffffffffffffffffffffffffffffffffffffffffffffffffffff191614915050949350505050565b606060008203612e66576040518060400160405280600181526020017f30000000000000000000000000000000000000000000000000000000000000008152509050612f7a565b600082905060005b60008214612e98578080612e8190615370565b915050600a82612e9191906153b8565b9150612e6e565b60008167ffffffffffffffff811115612eb457612eb3613e6c565b5b6040519080825280601f01601f191660200182016040528015612ee65781602001600182028036833780820191505090505b5090505b60008514612f7357600182612eff9190614e7e565b9150600a85612f0e9190614ced565b6030612f1a9190614c68565b60f81b818381518110612f3057612f2f6153e9565b5b60200101907effffffffffffffffffffffffffffffffffffffffffffffffffffffffffffff1916908160001a905350600a85612f6c91906153b8565b9450612eea565b8093505050505b919050565b6000612fb28484604051602001612f97929190615439565b60405160208183030381529060405280519060200120613598565b9050601060009054906101000a900473ffffffffffffffffffffffffffffffffffffffff1673ffffffffffffffffffffffffffffffffffffffff1661300083836135c890919063ffffffff16565b73ffffffffffffffffffffffffffffffffffffffff1614613056576040517f08c379a000000000000000000000000000000000000000000000000000000000815260040161304d906154b1565b60405180910390fd5b6001601383604051613068919061550d565b908152602001604051809103902060006101000a81548160ff02191690831515021790555050505050565b6000600560008373ffffffffffffffffffffffffffffffffffffffff1673ffffffffffffffffffffffffffffffffffffffff16815260200190815260200160002060000160089054906101000a900467ffffffffffffffff1667ffffffffffffffff169050919050565b50505050565b50505050565b6000848484846040516020016131229493929190615524565b6040516020818303038152906040528051906020012060001c9050949350505050565b6000828260405160200161315a92919061558a565b60405160208183030381529060405280519060200120905092915050565b60008082905060005b84518110156131c3576131ae828683815181106131a1576131a06153e9565b5b60200260200101516135ef565b915080806131bb90615370565b915050613181565b508091505092915050565b600080549050600073ffffffffffffffffffffffffffffffffffffffff168573ffffffffffffffffffffffffffffffffffffffff160361323a576040517f2e07630000000000000000000000000000000000000000000000000000000000815260040160405180910390fd5b60008403613274576040517fb562e8dd00000000000000000000000000000000000000000000000000000000815260040160405180910390fd5b61328160008683876130fd565b83600560008773ffffffffffffffffffffffffffffffffffffffff1673ffffffffffffffffffffffffffffffffffffffff16815260200190815260200160002060000160008282829054906101000a900467ffffffffffffffff160192506101000a81548167ffffffffffffffff021916908367ffffffffffffffff16021790555083600560008773ffffffffffffffffffffffffffffffffffffffff1673ffffffffffffffffffffffffffffffffffffffff16815260200190815260200160002060000160088282829054906101000a900467ffffffffffffffff160192506101000a81548167ffffffffffffffff021916908367ffffffffffffffff160217905550846004600083815260200190815260200160002060000160006101000a81548173ffffffffffffffffffffffffffffffffffffffff021916908373ffffffffffffffffffffffffffffffffffffffff160217905550426004600083815260200190815260200160002060000160146101000a81548167ffffffffffffffff021916908367ffffffffffffffff16021790555060008190506000858201905083801561344b575061344a8773ffffffffffffffffffffffffffffffffffffffff16611fa3565b5b15613510575b818773ffffffffffffffffffffffffffffffffffffffff16600073ffffffffffffffffffffffffffffffffffffffff167fddf252ad1be2c89b69c2b068fc378daa952ba7f163c4a11628f55a4df523b3ef60405160405180910390a46134c06000888480600101955088612ccf565b6134f6576040517fd1a57ed600000000000000000000000000000000000000000000000000000000815260040160405180910390fd5b80820361345157826000541461350b57600080fd5b61357b565b5b818060010192508773ffffffffffffffffffffffffffffffffffffffff16600073ffffffffffffffffffffffffffffffffffffffff167fddf252ad1be2c89b69c2b068fc378daa952ba7f163c4a11628f55a4df523b3ef60405160405180910390a4808203613511575b8160008190555050506135916000868387613103565b5050505050565b6000816040516020016135ab9190615602565b604051602081830303815290604052805190602001209050919050565b60008060006135d7858561361a565b915091506135e48161369b565b819250505092915050565b6000818310613607576136028284613867565b613612565b6136118383613867565b5b905092915050565b600080604183510361365b5760008060006020860151925060408601519150606086015160001a905061364f8782858561387e565b94509450505050613694565b604083510361368b57600080602085015191506040850151905061368086838361398a565b935093505050613694565b60006002915091505b9250929050565b600060048111156136af576136ae614555565b5b8160048111156136c2576136c1614555565b5b031561386457600160048111156136dc576136db614555565b5b8160048111156136ef576136ee614555565b5b0361372f576040517f08c379a000000000000000000000000000000000000000000000000000000000815260040161372690615674565b60405180910390fd5b6002600481111561374357613742614555565b5b81600481111561375657613755614555565b5b03613796576040517f08c379a000000000000000000000000000000000000000000000000000000000815260040161378d906156e0565b60405180910390fd5b600360048111156137aa576137a9614555565b5b8160048111156137bd576137bc614555565b5b036137fd576040517f08c379a00000000000000000000000000000000000000000000000000000000081526004016137f490615772565b60405180910390fd5b6004808111156138105761380f614555565b5b81600481111561382357613822614555565b5b03613863576040517f08c379a000000000000000000000000000000000000000000000000000000000815260040161385a90615804565b60405180910390fd5b5b50565b600082600052816020526040600020905092915050565b6000807f7fffffffffffffffffffffffffffffff5d576e7357a4501ddfe92f46681b20a08360001c11156138b9576000600391509150613981565b601b8560ff16141580156138d15750601c8560ff1614155b156138e3576000600491509150613981565b6000600187878787604051600081526020016040526040516139089493929190615840565b6020604051602081039080840390855afa15801561392a573d6000803e3d6000fd5b505050602060405103519050600073ffffffffffffffffffffffffffffffffffffffff168173ffffffffffffffffffffffffffffffffffffffff160361397857600060019250925050613981565b80600092509250505b94509492505050565b60008060007f7fffffffffffffffffffffffffffffffffffffffffffffffffffffffffffffff60001b841690506000601b60ff8660001c901c6139cd9190614c68565b90506139db8782888561387e565b935093505050935093915050565b8280546139f590614616565b90600052602060002090601f016020900481019282613a175760008555613a5e565b82601f10613a3057805160ff1916838001178555613a5e565b82800160010185558215613a5e579182015b82811115613a5d578251825591602001919060010190613a42565b5b509050613a6b9190613ab2565b5090565b6040518060600160405280600073ffffffffffffffffffffffffffffffffffffffff168152602001600067ffffffffffffffff1681526020016000151581525090565b5b80821115613acb576000816000905550600101613ab3565b5090565b6000604051905090565b600080fd5b600080fd5b60007fffffffff0000000000000000000000000000000000000000000000000000000082169050919050565b613b1881613ae3565b8114613b2357600080fd5b50565b600081359050613b3581613b0f565b92915050565b600060208284031215613b5157613b50613ad9565b5b6000613b5f84828501613b26565b91505092915050565b60008115159050919050565b613b7d81613b68565b82525050565b6000602082019050613b986000830184613b74565b92915050565b600081519050919050565b600082825260208201905092915050565b60005b83811015613bd8578082015181840152602081019050613bbd565b83811115613be7576000848401525b50505050565b6000601f19601f8301169050919050565b6000613c0982613b9e565b613c138185613ba9565b9350613c23818560208601613bba565b613c2c81613bed565b840191505092915050565b60006020820190508181036000830152613c518184613bfe565b905092915050565b6000819050919050565b613c6c81613c59565b8114613c7757600080fd5b50565b600081359050613c8981613c63565b92915050565b600060208284031215613ca557613ca4613ad9565b5b6000613cb384828501613c7a565b91505092915050565b600073ffffffffffffffffffffffffffffffffffffffff82169050919050565b6000613ce782613cbc565b9050919050565b613cf781613cdc565b82525050565b6000602082019050613d126000830184613cee565b92915050565b613d2181613cdc565b8114613d2c57600080fd5b50565b600081359050613d3e81613d18565b92915050565b60008060408385031215613d5b57613d5a613ad9565b5b6000613d6985828601613d2f565b9250506020613d7a85828601613c7a565b9150509250929050565b600060208284031215613d9a57613d99613ad9565b5b6000613da884828501613d2f565b91505092915050565b6000819050919050565b613dc481613db1565b82525050565b6000602082019050613ddf6000830184613dbb565b92915050565b613dee81613c59565b82525050565b6000602082019050613e096000830184613de5565b92915050565b600080600060608486031215613e2857613e27613ad9565b5b6000613e3686828701613d2f565b9350506020613e4786828701613d2f565b9250506040613e5886828701613c7a565b9150509250925092565b600080fd5b600080fd5b7f4e487b7100000000000000000000000000000000000000000000000000000000600052604160045260246000fd5b613ea482613bed565b810181811067ffffffffffffffff82111715613ec357613ec2613e6c565b5b80604052505050565b6000613ed6613acf565b9050613ee28282613e9b565b919050565b600067ffffffffffffffff821115613f0257613f01613e6c565b5b613f0b82613bed565b9050602081019050919050565b82818337600083830152505050565b6000613f3a613f3584613ee7565b613ecc565b905082815260208101848484011115613f5657613f55613e67565b5b613f61848285613f18565b509392505050565b600082601f830112613f7e57613f7d613e62565b5b8135613f8e848260208601613f27565b91505092915050565b600060208284031215613fad57613fac613ad9565b5b600082013567ffffffffffffffff811115613fcb57613fca613ade565b5b613fd784828501613f69565b91505092915050565b600067ffffffffffffffff821115613ffb57613ffa613e6c565b5b61400482613bed565b9050602081019050919050565b600061402461401f84613fe0565b613ecc565b9050828152602081018484840111156140405761403f613e67565b5b61404b848285613f18565b509392505050565b600082601f83011261406857614067613e62565b5b8135614078848260208601614011565b91505092915050565b60006020828403121561409757614096613ad9565b5b600082013567ffffffffffffffff8111156140b5576140b4613ade565b5b6140c184828501614053565b91505092915050565b600581106140d757600080fd5b50565b6000813590506140e9816140ca565b92915050565b60006020828403121561410557614104613ad9565b5b6000614113848285016140da565b91505092915050565b61412581613db1565b811461413057600080fd5b50565b6000813590506141428161411c565b92915050565b6000806040838503121561415f5761415e613ad9565b5b600061416d85828601613c7a565b925050602061417e85828601614133565b9150509250929050565b600067ffffffffffffffff8211156141a3576141a2613e6c565b5b602082029050602081019050919050565b600080fd5b60006141cc6141c784614188565b613ecc565b905080838252602082019050602084028301858111156141ef576141ee6141b4565b5b835b8181101561421857806142048882614133565b8452602084019350506020810190506141f1565b5050509392505050565b600082601f83011261423757614236613e62565b5b81356142478482602086016141b9565b91505092915050565b60006020828403121561426657614265613ad9565b5b600082013567ffffffffffffffff81111561428457614283613ade565b5b61429084828501614222565b91505092915050565b6142a281613cdc565b82525050565b600067ffffffffffffffff82169050919050565b6142c5816142a8565b82525050565b6142d481613b68565b82525050565b6060820160008201516142f06000850182614299565b50602082015161430360208501826142bc565b50604082015161431660408501826142cb565b50505050565b600060608201905061433160008301846142da565b92915050565b6000806040838503121561434e5761434d613ad9565b5b600061435c85828601614133565b925050602061436d85828601613c7a565b9150509250929050565b6000806040838503121561438e5761438d613ad9565b5b600061439c85828601614133565b92505060206143ad85828601614133565b9150509250929050565b6143c081613b68565b81146143cb57600080fd5b50565b6000813590506143dd816143b7565b92915050565b600080604083850312156143fa576143f9613ad9565b5b600061440885828601613d2f565b9250506020614419858286016143ce565b9150509250929050565b6000806000806080858703121561443d5761443c613ad9565b5b600061444b87828801613d2f565b945050602061445c87828801613d2f565b935050604061446d87828801613c7a565b925050606085013567ffffffffffffffff81111561448e5761448d613ade565b5b61449a87828801614053565b91505092959194509250565b6000806000606084860312156144bf576144be613ad9565b5b60006144cd86828701613c7a565b93505060206144de86828701613c7a565b925050604084013567ffffffffffffffff8111156144ff576144fe613ade565b5b61450b86828701614053565b9150509250925092565b6000806040838503121561452c5761452b613ad9565b5b600061453a85828601613d2f565b925050602061454b85828601613d2f565b9150509250929050565b7f4e487b7100000000000000000000000000000000000000000000000000000000600052602160045260246000fd5b6005811061459557614594614555565b5b50565b60008190506145a682614584565b919050565b60006145b682614598565b9050919050565b6145c6816145ab565b82525050565b60006020820190506145e160008301846145bd565b92915050565b7f4e487b7100000000000000000000000000000000000000000000000000000000600052602260045260246000fd5b6000600282049050600182168061462e57607f821691505b602082108103614641576146406145e7565b5b50919050565b7f414c52454144592052455645414c454400000000000000000000000000000000600082015250565b600061467d601083613ba9565b915061468882614647565b602082019050919050565b600060208201905081810360008301526146ac81614670565b9050919050565b60006060820190506146c86000830186613cee565b6146d56020830185613cee565b6146e26040830184613de5565b949350505050565b6000815190506146f9816143b7565b92915050565b60006020828403121561471557614714613ad9565b5b6000614723848285016146ea565b91505092915050565b7f5468652063616c6c657220697320616e6f7468657220636f6e74726163740000600082015250565b6000614762601e83613ba9565b915061476d8261472c565b602082019050919050565b6000602082019050818103600083015261479181614755565b9050919050565b7f414c4c4f57204c495354204d494e54494e47204953204e4f5420414354495645600082015250565b60006147ce602083613ba9565b91506147d982614798565b602082019050919050565b600060208201905081810360008301526147fd816147c1565b9050919050565b60008160601b9050919050565b600061481c82614804565b9050919050565b600061482e82614811565b9050919050565b61484661484182613cdc565b614823565b82525050565b60006148588284614835565b60148201915081905092915050565b7f4d494e544552204953204e4f54204f4e20414c4c4f57204c4953540000000000600082015250565b600061489d601b83613ba9565b91506148a882614867565b602082019050919050565b600060208201905081810360008301526148cc81614890565b9050919050565b7f414c4c4f574c495354205449434b455420414c52454144592055534544000000600082015250565b6000614909601d83613ba9565b9150614914826148d3565b602082019050919050565b60006020820190508181036000830152614938816148fc565b9050919050565b7f4f6e6c7920565246436f6f7264696e61746f722063616e2066756c66696c6c00600082015250565b6000614975601f83613ba9565b91506149808261493f565b602082019050919050565b600060208201905081810360008301526149a481614968565b9050919050565b7f445245414d4552532053414c45204e4f54204143544956450000000000000000600082015250565b60006149e1601883613ba9565b91506149ec826149ab565b602082019050919050565b60006020820190508181036000830152614a10816149d4565b9050919050565b7f4d494e544552204953204e4f54204f4e20445245414d455253204c4953540000600082015250565b6000614a4d601e83613ba9565b9150614a5882614a17565b602082019050919050565b60006020820190508181036000830152614a7c81614a40565b9050919050565b7f445245414d45522050524553414c45205449434b455420414c5245414459205560008201527f5345440000000000000000000000000000000000000000000000000000000000602082015250565b6000614adf602383613ba9565b9150614aea82614a83565b604082019050919050565b60006020820190508181036000830152614b0e81614ad2565b9050919050565b7f445245414d455220414c4c4f574c495354205449434b455420414c524541445960008201527f2055534544000000000000000000000000000000000000000000000000000000602082015250565b6000614b71602583613ba9565b9150614b7c82614b15565b604082019050919050565b60006020820190508181036000830152614ba081614b64565b9050919050565b7f4552433732314d657461646174613a2055524920717565727920666f72206e6f60008201527f6e6578697374656e7420746f6b656e0000000000000000000000000000000000602082015250565b6000614c03602f83613ba9565b9150614c0e82614ba7565b604082019050919050565b60006020820190508181036000830152614c3281614bf6565b9050919050565b7f4e487b7100000000000000000000000000000000000000000000000000000000600052601160045260246000fd5b6000614c7382613c59565b9150614c7e83613c59565b9250827fffffffffffffffffffffffffffffffffffffffffffffffffffffffffffffffff03821115614cb357614cb2614c39565b5b828201905092915050565b7f4e487b7100000000000000000000000000000000000000000000000000000000600052601260045260246000fd5b6000614cf882613c59565b9150614d0383613c59565b925082614d1357614d12614cbe565b5b828206905092915050565b600081905092915050565b60008190508160005260206000209050919050565b60008154614d4b81614616565b614d558186614d1e565b94506001821660008114614d705760018114614d8157614db4565b60ff19831686528186019350614db4565b614d8a85614d29565b60005b83811015614dac57815481890152600182019150602081019050614d8d565b838801955050505b50505092915050565b6000614dc882613b9e565b614dd28185614d1e565b9350614de2818560208601613bba565b80840191505092915050565b6000614dfa8285614d3e565b9150614e068284614dbd565b91508190509392505050565b7f4249525448204f4620424f4b49204953204e4f54204f4e000000000000000000600082015250565b6000614e48601783613ba9565b9150614e5382614e12565b602082019050919050565b60006020820190508181036000830152614e7781614e3b565b9050919050565b6000614e8982613c59565b9150614e9483613c59565b925082821015614ea757614ea6614c39565b5b828203905092915050565b7f5055424c49432043415020455843454544454400000000000000000000000000600082015250565b6000614ee8601383613ba9565b9150614ef382614eb2565b602082019050919050565b60006020820190508181036000830152614f1781614edb565b9050919050565b7f5155414e5449545920535552504153534553205045522d54584e204c494d4954600082015250565b6000614f54602083613ba9565b9150614f5f82614f1e565b602082019050919050565b60006020820190508181036000830152614f8381614f47565b9050919050565b7f4f776e61626c653a206e6577206f776e657220697320746865207a65726f206160008201527f6464726573730000000000000000000000000000000000000000000000000000602082015250565b6000614fe6602683613ba9565b9150614ff182614f8a565b604082019050919050565b6000602082019050818103600083015261501581614fd9565b9050919050565b7f4f776e61626c653a2063616c6c6572206973206e6f7420746865206f776e6572600082015250565b6000615052602083613ba9565b915061505d8261501c565b602082019050919050565b6000602082019050818103600083015261508181615045565b9050919050565b600060408201905061509d6000830185613dbb565b6150aa6020830184613de5565b9392505050565b600081519050919050565b600082825260208201905092915050565b60006150d8826150b1565b6150e281856150bc565b93506150f2818560208601613bba565b6150fb81613bed565b840191505092915050565b600060608201905061511b6000830186613cee565b6151286020830185613de5565b818103604083015261513a81846150cd565b9050949350505050565b7f4e4f204d494e545320504f535452455645414c00000000000000000000000000600082015250565b600061517a601383613ba9565b915061518582615144565b602082019050919050565b600060208201905081810360008301526151a98161516d565b9050919050565b60006151bb82613c59565b91506151c683613c59565b9250817fffffffffffffffffffffffffffffffffffffffffffffffffffffffffffffffff04831182151516156151ff576151fe614c39565b5b828202905092915050565b7f494e434f5252454354204554482053454e540000000000000000000000000000600082015250565b6000615240601283613ba9565b915061524b8261520a565b602082019050919050565b6000602082019050818103600083015261526f81615233565b9050919050565b7f4d415820434150204f4620424f4b492045584345454445440000000000000000600082015250565b60006152ac601883613ba9565b91506152b782615276565b602082019050919050565b600060208201905081810360008301526152db8161529f565b9050919050565b60006080820190506152f76000830187613cee565b6153046020830186613cee565b6153116040830185613de5565b818103606083015261532381846150cd565b905095945050505050565b60008151905061533d81613b0f565b92915050565b60006020828403121561535957615358613ad9565b5b60006153678482850161532e565b91505092915050565b600061537b82613c59565b91507fffffffffffffffffffffffffffffffffffffffffffffffffffffffffffffffff82036153ad576153ac614c39565b5b600182019050919050565b60006153c382613c59565b91506153ce83613c59565b9250826153de576153dd614cbe565b5b828204905092915050565b7f4e487b7100000000000000000000000000000000000000000000000000000000600052603260045260246000fd5b6000819050919050565b61543361542e82613c59565b615418565b82525050565b60006154458285614835565b6014820191506154558284615422565b6020820191508190509392505050565b7f4e4f542046524f4d20424f4b492046524f4e54454e4400000000000000000000600082015250565b600061549b601683613ba9565b91506154a682615465565b602082019050919050565b600060208201905081810360008301526154ca8161548e565b9050919050565b600081905092915050565b60006154e7826150b1565b6154f181856154d1565b9350615501818560208601613bba565b80840191505092915050565b600061551982846154dc565b915081905092915050565b60006080820190506155396000830187613dbb565b6155466020830186613de5565b6155536040830185613cee565b6155606060830184613de5565b95945050505050565b6000819050919050565b61558461557f82613db1565b615569565b82525050565b60006155968285615573565b6020820191506155a68284615422565b6020820191508190509392505050565b7f19457468657265756d205369676e6564204d6573736167653a0a333200000000600082015250565b60006155ec601c83614d1e565b91506155f7826155b6565b601c82019050919050565b600061560d826155df565b91506156198284615573565b60208201915081905092915050565b7f45434453413a20696e76616c6964207369676e61747572650000000000000000600082015250565b600061565e601883613ba9565b915061566982615628565b602082019050919050565b6000602082019050818103600083015261568d81615651565b9050919050565b7f45434453413a20696e76616c6964207369676e6174757265206c656e67746800600082015250565b60006156ca601f83613ba9565b91506156d582615694565b602082019050919050565b600060208201905081810360008301526156f9816156bd565b9050919050565b7f45434453413a20696e76616c6964207369676e6174757265202773272076616c60008201527f7565000000000000000000000000000000000000000000000000000000000000602082015250565b600061575c602283613ba9565b915061576782615700565b604082019050919050565b6000602082019050818103600083015261578b8161574f565b9050919050565b7f45434453413a20696e76616c6964207369676e6174757265202776272076616c60008201527f7565000000000000000000000000000000000000000000000000000000000000602082015250565b60006157ee602283613ba9565b91506157f982615792565b604082019050919050565b6000602082019050818103600083015261581d816157e1565b9050919050565b600060ff82169050919050565b61583a81615824565b82525050565b60006080820190506158556000830187613dbb565b6158626020830186615831565b61586f6040830185613dbb565b61587c6060830184613dbb565b9594505050505056fea26469706673582212208dd5d00bbabeec6037bf690351bdd475165713f0694e18ef37a0a707d1817fd364736f6c634300080d0033",
  "immutableReferences": {
    "73": [
      {
        "length": 32,
        "start": 4159
      },
      {
        "length": 32,
        "start": 10696
      }
    ],
    "75": [
      {
        "length": 32,
        "start": 4999
      },
      {
        "length": 32,
        "start": 10756
      }
    ],
    "3459": [
      {
        "length": 32,
        "start": 3456
      }
    ]
  },
  "source": "// SPDX-License-Identifier: MIT\n\npragma solidity 0.8.13;\n\nimport \"erc721a/contracts/ERC721A.sol\";\nimport \"@openzeppelin/contracts/access/Ownable.sol\";\nimport \"@openzeppelin/contracts/utils/cryptography/MerkleProof.sol\";\nimport \"@openzeppelin/contracts/utils/Strings.sol\";\nimport \"@openzeppelin/contracts/utils/cryptography/ECDSA.sol\";\nimport \"@chainlink/contracts/src/v0.8/VRFConsumerBase.sol\";\n\ncontract Boki is ERC721A, Ownable, VRFConsumerBase {\n  enum SaleStatus {\n    PAUSED,\n    DREAMERS,\n    PUBLIC,\n    ALLOWLIST,\n    FINAL\n  }\n\n  using Strings for uint256;\n  using ECDSA for bytes32;\n\n  // ------ SET SALE AS PAUSED\n  SaleStatus public saleStatus = SaleStatus.PAUSED;\n\n  string private preRevealURI;\n  string private postRevealBaseURI;\n\n  // ------ Sale Settings\n  uint256 private constant PRICE_BOKI = 0.001 ether;\n  uint256 private constant MAX_BOKI = 100;\n  uint256 private constant DEPLOYER_RESERVED_BOKI = 10;\n  uint256 private constant PUBLIC_BOKI_PER_TXN_LIMIT = 3;\n\n  // Remaining public Bokis (7777-1263-3753-1263-150=1348)\n  uint256 public publicBokiRemaining = 80;\n  bytes32 public dreamersMerkleRoot;\n  bytes32 public allowlistMerkleRoot;\n  address public publicMintSigner;\n\n  mapping(address => bool) public dreamersPresalePurchased;\n  mapping(address => bool) public allowlistSalePurchased;\n  mapping(bytes => bool) public signaturesUsed;\n\n  // ------ Reveal\n  bool public revealed;\n  uint256 public tokenOffset;\n\n  // Chainlink VRF\n  bytes32 public chainlinkKeyHash;\n  uint256 public chainlinkFee;\n\n  address private immutable withdrawalAddress;\n\n  constructor(\n    string memory _preRevealURI,\n    address _withdrawalAddress,\n    address _vrfCoordinator,\n    address _linkAddress,\n    bytes32 _chainlinkKeyHash,\n    uint256 _chainlinkFee\n  ) ERC721A(\"Boki\", \"BOKI\") VRFConsumerBase(_vrfCoordinator, _linkAddress) {\n    preRevealURI = _preRevealURI;\n    withdrawalAddress = _withdrawalAddress;\n    chainlinkKeyHash = _chainlinkKeyHash;\n    chainlinkFee = _chainlinkFee;\n    _mint(tx.origin, DEPLOYER_RESERVED_BOKI, \"\", false);\n  }\n\n  // ------ Prevention from minting off of Contract\n  modifier callerIsUser() {\n    require(tx.origin == msg.sender, \"The caller is another contract\");\n    _;\n  }\n\n  // ------ METADATA\n  function setPreRevealURI(string memory _URI) external onlyOwner {\n    preRevealURI = _URI;\n  }\n\n  function setPostRevealBaseURI(string memory _URI) external onlyOwner {\n    postRevealBaseURI = _URI;\n  }\n\n  // ------ TOKEN URI\n  // Before reveal, return same pre-reveal URI\n  // After reveal, return post-reveal URI with random token offset from Chainlink\n  function tokenURI(uint256 _tokenId) public view override returns (string memory) {\n    require(_exists(_tokenId), \"ERC721Metadata: URI query for nonexistent token\");\n    if (!revealed) return preRevealURI;\n    uint256 shiftedTokenId = (_tokenId + tokenOffset) % totalSupply();\n    return string(abi.encodePacked(postRevealBaseURI, shiftedTokenId.toString()));\n  }\n\n  // ------ SALE FUNCTION\n\n  function setSaleStatus(SaleStatus _status) external onlyOwner {\n    saleStatus = _status;\n  }\n\n  // ------ MERKLE ROOTS\n  function setMerkleRoots(bytes32 _dreamersMerkleRoot, bytes32 _allowlistMerkleRoot) external onlyOwner {\n    dreamersMerkleRoot = _dreamersMerkleRoot;\n    allowlistMerkleRoot = _allowlistMerkleRoot;\n  }\n\n  function processMint(uint256 _quantity) internal {\n    require(!revealed, \"NO MINTS POSTREVEAL\");\n    require(msg.value == PRICE_BOKI * _quantity, \"INCORRECT ETH SENT\");\n    require(totalSupply() + _quantity <= MAX_BOKI, \"MAX CAP OF BOKI EXCEEDED\");\n    _mint(msg.sender, _quantity, \"\", false);\n  }\n\n  //  ------ DREAMER PRESALE + DREAMER ALLOW LIST SALE\n  function dreamersSale(bytes32[] memory _proof) external payable callerIsUser {\n    require(saleStatus == SaleStatus.DREAMERS || saleStatus == SaleStatus.ALLOWLIST, \"DREAMERS SALE NOT ACTIVE\");\n    require(\n      MerkleProof.verify(_proof, dreamersMerkleRoot, keccak256(abi.encodePacked(msg.sender))),\n      \"MINTER IS NOT ON DREAMERS LIST\"\n    );\n    if (saleStatus == SaleStatus.DREAMERS) {\n      require(!dreamersPresalePurchased[msg.sender], \"DREAMER PRESALE TICKET ALREADY USED\");\n      dreamersPresalePurchased[msg.sender] = true;\n    } else {\n      require(!allowlistSalePurchased[msg.sender], \"DREAMER ALLOWLIST TICKET ALREADY USED\");\n      allowlistSalePurchased[msg.sender] = true;\n    }\n\n    processMint(1);\n  }\n\n  // ------ ALLOWLIST SALE\n  function allowlistSale(bytes32[] memory _proof) external payable callerIsUser {\n    require(saleStatus == SaleStatus.ALLOWLIST, \"ALLOW LIST MINTING IS NOT ACTIVE\");\n    require(\n      MerkleProof.verify(_proof, allowlistMerkleRoot, keccak256(abi.encodePacked(msg.sender))),\n      \"MINTER IS NOT ON ALLOW LIST\"\n    );\n    require(!allowlistSalePurchased[msg.sender], \"ALLOWLIST TICKET ALREADY USED\");\n    allowlistSalePurchased[msg.sender] = true;\n\n    processMint(1);\n  }\n\n  // ------ BIRTH OF BOKI (PUBLIC SALE)\n  function bokiBirth(\n    uint256 _quantity,\n    uint256 _nonce,\n    bytes memory _signature\n  ) external payable callerIsUser {\n    require(saleStatus == SaleStatus.PUBLIC || saleStatus == SaleStatus.FINAL, \"BIRTH OF BOKI IS NOT ON\");\n    require(saleStatus == SaleStatus.FINAL || publicBokiRemaining - _quantity >= 0, \"PUBLIC CAP EXCEEDED\");\n    require(_quantity <= PUBLIC_BOKI_PER_TXN_LIMIT, \"QUANTITY SURPASSES PER-TXN LIMIT\");\n    validateSignature(msg.sender, _nonce, _signature);\n\n    publicBokiRemaining -= _quantity;\n    processMint(_quantity);\n  }\n\n  // ------ EDIT CHAINLINK CONFIG\n  function setChainlinkConfig(uint256 _fee, bytes32 _keyhash) external onlyOwner {\n    chainlinkFee = _fee;\n    chainlinkKeyHash = _keyhash;\n  }\n\n  // ------ REQUEST TOKEN OFFSET\n  // NOTE: contract must be approved for and own 2 LINK before calling this function\n  function startReveal(string memory _newURI) external onlyOwner returns (bytes32 requestId) {\n    require(!revealed, \"ALREADY REVEALED\");\n    postRevealBaseURI = _newURI;\n    LINK.transferFrom(msg.sender, address(this), chainlinkFee);\n    return requestRandomness(chainlinkKeyHash, chainlinkFee);\n  }\n\n  // ------ CHAINLINK CALLBACK FOR TOKEN OFFSET\n  function fulfillRandomness(bytes32, uint256 _randomness) internal override {\n    require(!revealed, \"ALREADY REVEALED\");\n    revealed = true;\n    tokenOffset = _randomness % totalSupply();\n  }\n\n  // ------ WITHDRAW FUNDS\n  function withdrawFunds() external onlyOwner {\n    payable(withdrawalAddress).transfer(address(this).balance);\n  }\n\n  // ------ SET PUBLIC KEY OF PUBLIC MINT SIGNATURE SIGNER\n  function setPublicMintSigner(address _signer) external onlyOwner {\n    publicMintSigner = _signer;\n  }\n\n  // ------ VERIFY SIGNATURE\n  function validateSignature(\n    address _sender,\n    uint256 _nonce,\n    bytes memory _signature\n  ) internal {\n    bytes32 signedHash = keccak256(abi.encodePacked(_sender, _nonce)).toEthSignedMessageHash();\n    require(signedHash.recover(_signature) == publicMintSigner, \"NOT FROM BOKI FRONTEND\");\n    signaturesUsed[_signature] = true;\n  }\n\n  function numberMinted(address _owner) public view returns (uint256) {\n    return _numberMinted(_owner);\n  }\n\n  function getOwnershipData(uint256 _tokenId) external view returns (TokenOwnership memory) {\n    return _ownershipOf(_tokenId);\n  }\n}",
  "sourcePath": "/Users/yuyu/workspace/boki/contracts/boki.sol",
  "compiler": {
    "name": "solc",
    "version": "0.8.13+commit.abaa5c0e.Emscripten.clang"
  },
  "schemaVersion": "3.4.7",
  "updatedAt": "2022-06-30T01:40:49.658Z",
  "networkType": "ethereum",
  "devdoc": {
    "kind": "dev",
    "methods": {
      "approve(address,uint256)": {
        "details": "See {IERC721-approve}."
      },
      "balanceOf(address)": {
        "details": "See {IERC721-balanceOf}."
      },
      "getApproved(uint256)": {
        "details": "See {IERC721-getApproved}."
      },
      "isApprovedForAll(address,address)": {
        "details": "See {IERC721-isApprovedForAll}."
      },
      "name()": {
        "details": "See {IERC721Metadata-name}."
      },
      "owner()": {
        "details": "Returns the address of the current owner."
      },
      "ownerOf(uint256)": {
        "details": "See {IERC721-ownerOf}."
      },
      "renounceOwnership()": {
        "details": "Leaves the contract without owner. It will not be possible to call `onlyOwner` functions anymore. Can only be called by the current owner. NOTE: Renouncing ownership will leave the contract without an owner, thereby removing any functionality that is only available to the owner."
      },
      "safeTransferFrom(address,address,uint256)": {
        "details": "See {IERC721-safeTransferFrom}."
      },
      "safeTransferFrom(address,address,uint256,bytes)": {
        "details": "See {IERC721-safeTransferFrom}."
      },
      "setApprovalForAll(address,bool)": {
        "details": "See {IERC721-setApprovalForAll}."
      },
      "supportsInterface(bytes4)": {
        "details": "See {IERC165-supportsInterface}."
      },
      "symbol()": {
        "details": "See {IERC721Metadata-symbol}."
      },
      "totalSupply()": {
        "details": "Burned tokens are calculated here, use _totalMinted() if you want to count just minted tokens."
      },
      "transferFrom(address,address,uint256)": {
        "details": "See {IERC721-transferFrom}."
      },
      "transferOwnership(address)": {
        "details": "Transfers ownership of the contract to a new account (`newOwner`). Can only be called by the current owner."
      }
    },
    "version": 1
  },
  "userdoc": {
    "kind": "user",
    "methods": {},
    "version": 1
  }
}